:020000020000FC
:02000000CCC072
:02000800C6C070
:10001200BAC022D0052D0BD0939A1ED0062D07D040
:10002200919A1AD0072D03D0909A16D008950030D5
:10003200B9F00130B9F00230B9F00330B9F0043050
:10004200B9F00530B9F00630B9F00730B9F0083030
:10005200B9F00930B9F0089593989198909808955D
:1000620013D0089519D008951FD0089525D008956A
:100072002BD0089531D0089537D008953DD00895FA
:1000820043D0089549D00895949A959A969A979A4A
:10009200C09AAA9AA99808959498959A969A979828
:1000A200C098AA98A9980895949A959A9698979A1A
:1000B200C09AAA98A99A0895949A959A969A979A04
:1000C200C098AA98A99A08959498959A969A9798FA
:1000D200C098AA9AA99A0895949A9598969A979AE6
:1000E200C098AA9AA99A0895949A9598969A979AD6
:1000F200C09AAA9AA99A0895949A959A969A9798C4
:10010200C098AA98A9980895949A959A969A979AB7
:10011200C09AAA9AA99A0895949A959A969A979AA1
:10012200C098AA9AA99A089507E2402E00E1302EBB
:1001320014D0902E03E0402E08EE302E0ED0802EEA
:10014200442404E6302E09D0702E0AE0302E05D069
:10015200602E00E0020D502E089500E023141404D6
:1001620008F40895231814080395F8CF01E0E00E6F
:100172000027F01E08EE13E0E016F10618F011F069
:10018200EE24FF240895F8941F2C2E2CCDDF41DF9E
:1001920078941895EBDF18950FE50DBF04E00EBFBC
:1001A2000FEF01BB04BB07BB03E003BF01E009BFC4
:1001B20006E005BD09B7006409BFEE24FF24789468
:0401C2000000FECF6C
:00000001FF
