:020000020000FC
:02000000FEC040
:02000800F2C044
:02001200D6C056
:10001C00EAC0072D0BD0909A1ED0062D07D0919ACE
:10002C001AD0052D03D0939A16D008950030B9F04C
:10003C000130B9F00230B9F00330B9F00430B9F046
:10004C000530B9F00630B9F00730B9F00830B9F026
:10005C000930B9F00895939891989098089513D019
:10006C0008951AD0089521D0089528D008952FD03E
:10007C00089536D008953DD0089544D008954BD0BE
:10008C00089552D00895949A959A969A979AC09AF0
:10009C00AA9AA998A89808959498959A969A979838
:1000AC00C098AA98A998A8980895949A959A969801
:1000BC00979AC09AAA98A99AA8980895949A959AEA
:1000CC00969A979AC098AA98A99AA89808959498DD
:1000DC00959A969A9798C098AA9AA99AA8980895CA
:1000EC00949A9598969A979AC098AA9AA99AA89829
:1000FC000895949A9598969A979AC09AAA9AA99ABA
:10010C00A8980895949A959A969A9798C098AA98B0
:10011C00A998A8980895949A959A969A979AC09A9D
:10012C00AA9AA99AA8980895949A959A969A979AA1
:10013C00C098AA9AA99AA898089507E2402E00E1BF
:10014C00302E14D0902E03E0402E08EE302E0ED020
:10015C00802E442404E6302E09D0702E0AE0302E76
:10016C0005D0602E00E0010D502E089500E0131410
:10017C00240408F40895131824080395F8CFE39485
:10018C0009F4F3940F2D033029F40E2D083E11F4CD
:10019C00EE24FF240895E199FECF2FBB1EBBE09AFD
:1001AC000DB30895E199FECF2FBB1EBB0DBBE29A98
:1001BC00E19A08950F930FB70F93D0FF01C005C0BC
:1001CC00182E292EBADF25DF05C01E2C2F2CB5DFEB
:1001DC0020DF00C00CED02BF0F910FBF0F911895DF
:1001EC00189500001895F89484B195B1369A7894C6
:1001FC001895EE24FF2400270FE50DBF04E00EBF79
:10020C000BEF01BB01E007BB07E004BB929AC29A5B
:10021C0015BA02E003BF01E009BF11E020E0BBDF2B
:10022C00E02E12E020E0B7DFF02E0E2D0F3F69F428
:10023C000F2D0F3F51F4EE24FF2411E020E00E2D82
:10024C00B1DF12E020E00F2DADDF03EC07B90FEAB0
:10025C0006B9DD27789400C0369A0BD0B29B2DD00E
:10026C00B299EE7F38D0829B2FD08299FE7F33D00B
:10027C00F3CFB2990895829908952DD0D0FF01C083
:10028C000EC011E020E087DFE02E12E020E083DFDB
:10029C00F02ED160B29BFECF829BFCCF089511E073
:1002AC0020E00E2D7FDF12E020E00F2D7BDFDE7FC4
:1002BC00B29BFECF829BFCCF0895D0FF0895E0FD4A
:1002CC000895E394E1600895D0FF0895F0FD08953A
:1002DC00EA94F160089544E15FEF5A95F1F74A957D
:0402EC00D9F70895A1
:00000001FF
