:020000020000FC
:100000008AC009E00BD0909A1ED005E007D0919AE3
:100010001AD003E003D0939A16D008950030B9F0B7
:100020000130B9F00230B9F00330B9F00430B9F062
:100030000530B9F00630B9F00730B9F00830B9F042
:100040000930B9F00895939891989098089513D035
:10005000089519D008951FD0089525D008952BD064
:10006000089531D0089537D008953DD0089543D0F4
:10007000089549D00895949A959A969A979AC09A15
:10008000AA9AA99808959498959A969A9798C0983C
:10009000AA98A9980895949A959A9698979AC09A2A
:1000A000AA98A99A0895949A959A969A979AC09818
:1000B000AA98A99A08959498959A969A9798C0980C
:1000C000AA9AA99A0895949A9598969A979AC098F8
:1000D000AA9AA99A0895949A9598969A979AC09AE6
:1000E000AA9AA99A0895949A959A969A9798C098D8
:1000F000AA98A9980895949A959A969A979AC09AC8
:10010000AA9AA99A0895949A959A969A979AC098B5
:10011000AA9AA99A08950FE50DBF04E00EBF0FEF4C
:1001200001BB04BB07BB0FE50DBF04E00EBF0FEF23
:0A01300001BB04BB07BB65DFF6CF7F
:00000001FF
