:020000020000FC
:02000000DDC061
:02000800D7C05F
:10001200C9C022D0052D0BD0939A1ED0062D07D031
:10002200919A1AD0072D03D0909A16D008950030D5
:10003200B9F00130B9F00230B9F00330B9F0043050
:10004200B9F00530B9F00630B9F00730B9F0083030
:10005200B9F00930B9F0089593989198909808955D
:1000620013D0089519D008951FD0089525D008956A
:100072002BD0089531D0089537D008953DD00895FA
:1000820043D0089549D00895949A959A969A979A4A
:10009200C09AAA9AA99808959498959A969A979828
:1000A200C098AA98A9980895949A959A9698979A1A
:1000B200C09AAA98A99A0895949A959A969A979A04
:1000C200C098AA98A99A08959498959A969A9798FA
:1000D200C098AA9AA99A0895949A9598969A979AE6
:1000E200C098AA9AA99A0895949A9598969A979AD6
:1000F200C09AAA9AA99A0895949A959A969A9798C4
:10010200C098AA98A9980895949A959A969A979AB7
:10011200C09AAA9AA99A0895949A959A969A979AA1
:10012200C098AA9AA99A0895E199FECF2FBB1EBB47
:10013200E09A3DB30895E199FECF2FBB1EBB3DBBB4
:10014200E29AE19A089507E2402E00E1302E14D09F
:10015200902E03E0402E08EE302E0ED0802E442446
:1001620004E6302E09D0702E0AE0302E05D0602E23
:1001720000E0020D502E089500E02314140408F448
:100182000895231814080395F8CF01E0E00E002724
:10019200F01E08EE13E0E016F10618F011F0EE245E
:1001A200FF240895F8941F2C2E2CCDDF32DF0CEDA6
:1001B20002BF78941895000018950FE50DBF04E072
:1001C2000EBF0FEF01BB04BB07BB0BEF01BB04E08B
:1001D20002BB01E007BB04E008BB03E003BF01E090
:1001E20009BF06E005BD09B7006409BF11E020E0C0
:1001F2009BDFE32E12E020E097DFF32E0E2D0F3F60
:1002020069F40F2D0F3F51F411E020E030E093DF4D
:1002120012E020E030E08FDFEE24FF24789426D035
:1002220050B346B3752F7095792364E0762321F09D
:100232006FEFE61609F0E394742F7095782364E06B
:10024200762319F0EE2009F0EA9474E0752359F44C
:1002520074E0742341F411E020E03E2D6CDF12E0E3
:1002620020E03F2D68DF952F842FD9CF04E60A9531
:04027200F1F7089503
:00000001FF
